:10309700121DE9D2A4122EBD7FD87E0E122FEF1279
:0530A70016290222576A
:10000300D3CE02102110111017BE8220424043BCF0
:10001300128412882288E2BE22882488248829A890
:100023001010D3BE00802040102013C080444044F1
:100033004F48115011602160E25024482844304257
:1000430021400080BFD810401020102013FEFA0278
:10005300149411081A043000D1FC10201020102031
:10006300102057FE2000D6C60404240424043FA411
:1000730044240424FFE4042404243FA424A424A447
:100083002684250404140408B6CB2020112411244B
:10009300FD2401FC08008BFE8820484049FC515494
:1000A30051541D54E1544154010CCEC2000023F8B5
:1000B3001208120883F84208420813F8100027FCBC
:1000C300E4A424A424A424A42FFE0000B6C80100A1
:1000D30000803FFE222022203FFC2220222023E01A
:1000E30020002FF02410422041C08630380ECEB3BA
:1000F30010201020202025FE4420F82010FC202072
:100103004020FDFE402200221C2AE0244020002043
:10011300BEAD100011FC200824104430F8481084B0
:1001230023024000FDFC402000201C20E02043FE71
:100133000000BDF800902090109013FC00900090F8
:10014300F09017FE1090109011101110121028004B
:1001530047FE0000B5F7000047FC2444244405F49F
:100163000444E44427FC240425F425142D1435F415
:10017300240404140808CBD90040204017FC104085
:1001830003F80248F24813F810E0115012481444DF
:100193001040280047FE0000C7F3012001100100B2
:1001A3007FFC01002108111009A00340052009105C
:1001B30011086106010005000200BEC8104014408A
:1001C30012401080FEFE1108108892885488105047
:1001D300385054209250108851042202B3E4020094
:1001E3000100FFFE04000400082010103FF804483B
:1001F300044004400440084408441044603CC6F8EA
:10020300100010003FFC20004FF080003FF0001072
:100213000010001000100010000A000A000600027F
:10022300B7BD020001000100FFFE0400040004004A
:1002330007F004100410041008100810101020A078
:100243004040CFF20200040008007FFC4004400459
:1002530047C4444444444444444447C44444400499
:1002630040144008D3AD00002080133C1224022424
:100273000224F2241224122412B413281220102070
:10028300282047FE0000B0B410401020102013FEB9
:10029300FA02144410401BFE3088D088110810D095
:1002A3001020105050882304B8B4100010001FFC15
:1002B30020005FF090101FF010101FF004000FF0EB
:1002C3001820644003801C70E00EBBB600800080E1
:1002D300FC8004FC050449082A401440104028A06F
:1002E30024A045108110020804040802D7AA202084
:1002F30020202020FDFC4020504093FEFC40108035
:1003030011FC1C04F0885050102010101010B9A6D6
:10031300004000400040FE4011FC104410441044D3
:100323001044108410841E84F10441040228041034
:10033300C4DC104024444248FF70014000427E4226
:10034300423E42007E44424842707E4042424A421C
:10035300443EC7F800007FFC400040104410422098
:10036300414040804140422044104810400040003A
:100373007FFE0000CEBB088008400840100017FC39
:10038300300030085208920811101110111011207A
:1003930010201FFE1000B5B51020112410A410A4C6
:1003A300FCA8102033FC38045404500491FC1004BE
:1003B3001004100413FC1004C8EB04000200010035
:1003C30001000100028002800280044004400820F2
:1003D30008201010201040088006000000000000D4
:1003E300000000000000000000000000000000000A
:1003F30000000000000000000000000000000000FA
:1004030000000000000000000000000000000000E9
:1004130000000000000000000000000000000000D9
:1004230000000000000000000000000000000000C9
:1004330000000000000000000000000000000000B9
:1004430000000000000000000000000000000000A9
:10045300000000000000000000000000001808C8B1
:100463000808000000000000000000007F606060DA
:100473006060606060E06020000000000000000039
:100483000000000000000000000000001818181011
:100493001010000000000000000000000000000039
:1004A30000000808080C0C0C00000000000000000D
:1004B3000000000000000000000000006C38100085
:1004C3007CC6701CC67C00000000000010386C0065
:1004D300780C7CCCCC76000000000000000000000B
:1004E3007CC670C0C67C0000000000000000000055
:1004F3006C967CD0D66C0000000000000000000069
:100503007CC60606C67C00000000000000386CC6EE
:10051300C6FEC6C66C3800000000000000000010D4
:1005230038286C44C6C6000000000000000000002C
:100533007CC606FEC67C0000000000000000000030
:10054300DC666666F60606663C000000006C38F85A
:100553000C7EC6C6C67C000000000000000E1B18FF
:10056300181818181818D87000000000000000FEB2
:10057300860C180C0606C67C0000000076DC000022
:10058300780C7CCCCC7600000000000076DC000008
:100593007CC60606C67C00000000000076DC000076
:1005A300DC6666666666000000000000000000006E
:1005B30076999F98996F00000000000000000000EA
:1005C30000000000000C0606000000000000000010
:1005D300000000003C66663C0000000000000000D4
:1005E30000000000000000000000000000183C3C78
:1005F3003C1818001818000000000000C6C6C644C6
:10060300000000000000000000000000006C6CFE11
:100613006C6C6CFE6C6C000000000018187CC6C289
:10062300C07C0686C67C181800000000000000C3CA
:10063300C60C183063C300000000000000386C6C67
:100643003876DCCCCC76000000000000303030601F
:1006530000000000000000000000000000183060EF
:1006630060606060301800000000000000180C0695
:10067300060606060C180000000000000000006CCF
:1006830038FE386C0000000000000000000018185D
:10069300187E181818000000000000000000000079
:1006A30000000018181830000000000000000000CF
:1006B30000FE000000000000000000000000000039
:1006C3000000000018180000000000000002060CE3
:1006D300183060C08000000000000000007CC6CE1F
:1006E300DEF6E6C6C67C000000000000001838787D
:1006F30018181818187E000000000000007CC606B9
:100703000C183060C6FE000000000000007CC60626
:10071300063C0606C67C000000000000000C1C3CE2
:100723006CCCFE0C0C1E00000000000000FEC0C0DC
:10073300C0FC0606C67C000000000000003860C054
:10074300C0FCC6C6C67C00000000000000FEC60652
:100753000C1830303030000000000000007CC6C6AA
:10076300C67CC6C6C67C000000000000007CC6C66E
:10077300C67E06060C780000000000000000181872
:100783000000001818000000000000000000181806
:1007930000000018183000000000000000060C18CC
:1007A300306030180C06000000000000000000005C
:1007B3007E00007E00000000000000000060301892
:1007C3000C060C183060000000000000007CC6C658
:1007D3000C1818001818000000000000007CC6C6A2
:1007E300DEDEDEDCC07C0000000000000010386CA0
:1007F300C6C6FEC6C6C600000000000000FC666652
:10080300667C666666FC000000000000003C66C271
:10081300C0C0C0C2663C00000000000000F86C6667
:10082300666666666CF800000000000000FE666203
:100833006878686266FE00000000000000FE6662E1
:100843006878686060F0000000000000003C66C249
:10085300C0C0DEC6663A00000000000000C6C6C67F
:10086300C6FEC6C6C6C6000000000000003C18183D
:1008730018181818183C000000000000001E0C0C8B
:100883000C0C0CCCCC7800000000000000E6666C79
:100893006C786C6C66E600000000000000F060609D
:1008A3006060606266FE00000000000000C6EEFEAD
:1008B300D6C6C6C6C6C600000000000000C6E6F6DF
:1008C300FEDECEC6C6C600000000000000386CC6BF
:1008D300C6C6C6C66C3800000000000000FC666691
:1008E300667C606060F0000000000000007CC6C60B
:1008F300C6D6DE7C0C0E00000000000000FC66661D
:10090300667C6C6666E6000000000000007CC6C6DC
:1009130060380CC6C67C000000000000007E5A1838
:1009230018181818183C00000000000000C6C6C6BE
:10093300C6C6C6C6C67C00000000000000C6C6C608
:10094300C6C6C66C381000000000000000C6C6C64C
:10095300C6C6D6FEEEC600000000000000C6C6C62E
:100963006C386CC6C6C600000000000000C6C6C6D0
:100973006C383838387C00000000000000FEC68C5C
:10098300183060C2C6FE000000000000003C30309A
:1009930030303030303C0000000000000080C0E008
:1009A30070381C0E0602000000000000003C0C0C16
:1009B3000C0C0C0C0C3C000000000010386CC60042
:1009C3000000000000000000000000000000000024
:1009D30000000000000000FE00000000303018009E
:1009E3000000000000000000000000000000000004
:1009F300780C7CCCCC7600000000000000E0606046
:100A0300786C666666DC00000000000000000000F1
:100A13007CC6C0C0C67C000000000000001C0C0C9B
:100A23003C6CCCCCCC760000000000000000000041
:100A33007CC6FEC0C67C000000000000001C3632ED
:100A4300307C3030307800000000000000000000EF
:100A530076CCCCCC7C0CCC780000000000E060604D
:100A63006C76666666E60000000000000018180059
:100A730038181818183C0000000000000006060093
:100A83000E0606060666663C0000000000E0606095
:100A9300666C786C66E600000000000000381818E9
:100AA30018181818183C000000000000000000008F
:100AB30044FED6D6D6D60000000000000000000099
:100AC300DC66666666660000000000000000000049
:100AD3007CC6C6C6C67C0000000000000000000003
:100AE300DC6666667C6060F00000000000000000C9
:100AF30076CCCCCC7C0C0C1E000000000000000067
:100B0300DC76666060F0000000000000000000007A
:100B13007CC6701CC67C0000000000000010303052
:100B2300FC303030361C00000000000000000000E4
:100B3300CCCCCCCCCC760000000000000000000040
:100B4300C6C6C66C3810000000000000000000009C
:100B5300C6C6C6D6FE6C0000000000000000000000
:100B6300C66C38386CC600000000000000000000AE
:100B7300C6C6C6C67E060C78000000000000000052
:100B8300FECC183066FE000000000000000E1818AE
:100B930018701818180E000000000000001818182C
:100BA300180018181818000000000000007018182A
:100BB300180E181818700000000000000076DC0002
:100BC3000000000000000000000000000000000022
:100BD3000000000000000000000000000000000012
:100BE3000000000000000000000000000000000002
:100BF30000000000000000000000000000000000F2
:102FEF00E4FDFCC3ED9FEC9E5015E4FBFA0BBB0018
:0F2FFF00010AEB64FA4A70F50DBD00010C80E485
:01300E00229F
:103080007E08EF30E704D2A38002C2A3C2A5D2A576
:06309000EF25E0FFDEEC7D
:013096002217
:0A30FE00C2A0C2A2123080D2A022AC
:0730AC007F2A1230FEE4FF51
:0D30B300E4787AF2C2A0D2A2123080D2A03E
:0130C00022ED
:04306700AD07AC06FF
:10306B00E47872F2C2A0D2A2ECFF123080AF05124C
:04307B003080D2A02F
:01307F00222E
:0E30D600C2A17F647E00122FEFD2A1022FEF65
:101DE9001230D67F111230FE7F787E00122FEF7FDE
:101DF900B11230FE7F011230B37F2C1230B37F2D28
:101E09001230B37FB21230FE7F011230B37F2C1231
:101E190030B37F2D1230B37FB31230FE7F01123001
:101E2900B37F2C1230B37F2D1230B37F011230B340
:101E39007F2C1230B37F2D1230B37FB41230FE7F66
:101E4900071230B37FC01230FE7FA21230B37F0277
:101E59001230B37F841230B37FC11230FE7FC512B6
:101E690030B37FC21230FE7F0A1230B3E4FF123062
:101E7900B37FC31230FE7F8A1230B37F2A1230B388
:101E89007FC41230FE7F8A1230B37FEE1230B37FE7
:101E9900C51230FE7F0E1230B37F361230FE7FC876
:101EA9001230B37FE01230FE7F0F1230B37F1A1267
:101EB90030B37F0F1230B37F181230B37F2F123037
:101EC900B37F281230B37F201230B37F221230B390
:101ED9007F1F1230B37F1B1230B37F231230B37FC1
:101EE900371230B3E4FF1230B37F071230B37F02E9
:101EF9001230B37F101230B37FE11230FE7F0F1220
:101F090030B37F1B1230B37F0F1230B37F171230FB
:101F1900B37F331230B37F2C1230B37F291230B321
:101F29007F2E1230B37F301230B37F301230B37F3F
:101F3900391230B37F3F1230B3E4FF1230B37F0759
:101F49001230B37F031230B37F101230B31230ACAA
:101F59007F021230B3E4FF1230B37F821230B37FB5
:101F69002B1230AE7F031230B3E4FF1230B37F83FC
:101F79001230B37FF01230FE7F011230B37FF612B8
:101F890030AE7F3A1230FE7F051230B37F2902301E
:011F9900FE49
:102E81008F828E831230ACAF82EF2402FF1230B3F7
:102E9100E4FF1230B3EB2402FF1230B37F2B123068
:102EA100AEED2403FF1230B3E4FF1230B37878089B
:0C2EB100E22403FF1230B37F2C0230FE3D
:102EF700786EEEF208EFF208EAF208EBF28D828CB8
:102F070083786EE2FE08E2FF2401FBE43EFAE582E5
:102F170024017879F2E4358318F2122E817870E271
:072F2700FE08E2FF02306723
:102C1000783FEEF208EFF208ECF2FE08EDF2FF0862
:072C2000EAF2FC08EBF2FDF3
:102C27007846E224FFFB18E234FFFA7848E224FFF3
:102C37007979F318E234FF19F3122E81E4FB784314
:102C4700E2FE08E2FFC37848E29FFF18E29EFEEB30
:102C5700C39FE49E502AE4FA7841E2FE08E2FFC3EC
:102C67007846E29FFF18E29EFEEAC39FE49E500D5E
:102C7700783FE2FE08E2FF1230670A80DB0B80BE76
:012C8700222A
:101F9A00783FEEF208EFF208ECF208EDF208EAF206
:031FAA0008EBF24F
:101FAD00784CE4F208741DF27847E2FB08E2FA0877
:101FBD00E2F91220FD70030220FCC394805003024D
:101FCD0020EEE408F208F2784CE2FE08E2FF784ACF
:101FDD00E2FC08E2FDC39FEC9E40030220DC784743
:101FED00E2FB08E2FA08E2F91220FDFF900003750A
:101FFD00F022ED12224BEC75F022A42583F583E43B
:10200D00936F60030220CE900001122116FF784AD3
:10201D00E2FC08E290000475F02212224BEC75F000
:10202D0022A42583F583E4936F60030220CE783FCD
:10203D00E2FE08E2FF08E2FC08E2FDEF240FFBE4FC
:10204D003EFAE2240F7979F318E2340019F3122ED7
:10205D0081E4FBE4FA784AE2FE08E290000575F0AF
:10206D002212224BEE75F022A42583F583E5822BF7
:10207D00F582E43583F583E493FD3395E0FC7480BC
:10208D007E00A802088006CEA2E713CE13D8F8FF73
:10209D00EE5CFEEF5D4E60097843E2FE08E2FF80E4
:1020AD00127845E2FE08E2FF7844E26F700318E211
:1020BD006E60031230670AEAB4089A0BEB64207065
:1020CD0092784BE22401F218E23400F2021FD47828
:1020DD0049E22402F218E23400F27840E224108042
:0F20ED00057849E22401F218E23400F2021FB52F
:0120FC0022C1
:101C23007857EEF208EFF208ECF208EDF208EBF267
:061C330008EAF208E9F2E4
:101C3900E47862F208F2785BE2FB08E2FA08E2F97A
:101C49001230C17862E2FC08E2FDC39FEE6480F8BD
:101C5900EC6480984003021DE8785BE2FB08E2FA35
:101C690008E2F98D828C83122116FFC394A14009E1
:101C790090009BEFF0E4A3F022785BE2FB08E2FA24
:101C890008E2F97862E2FE08E2F5828E83122116F3
:101C9900FFE4FCFDFE7B10FAF9F81221F0786A12D4
:101CA900223FE4FBFA786A0808E2FE08E22BFFEE1D
:101CB9003AFE74DD2FF58274033EF583E493FF74D5
:101CC9007B2BF58274003AF583EFF00BBB00010A18
:101CD900EB64104A70CFE47866F208F2E47864F2B3
:101CE90008F27864E2FE08E2FFC39408EE64809487
:101CF900804003021DBF7C007D081221BA74807EDA
:101D090000A805088006CEA2E713CE13D8F8FF78FD
:101D190066E2FC08E2FD247BF58274003CF583E071
:101D2900FB3395E05EFEEF5B4E60397864E2FE08B6
:101D3900E2FF7858E22FFB18E23EFA7862E2FE08E9
:101D4900E27803C333CE33CED8F92BFFEA3EFE78CF
:101D590068F208EFF27859E2FA08E22DFDEC3AFC54
:101D6900785E803C7864E2FE08E2FF7858E22FFD55
:101D790018E23EFC7862E2FE08E27803C333CE3310
:101D8900CED8F92DFFEC3EFE7868F208EFF27859CB
:101D9900E2FC08E2FD7867E22DFD18E23CFC786080
:101DA900E2FA08E2FB122EF77865E22401F218E262
:101DB9003400F2021CEB7867E22401F218E23400E5
:101DC900F2C308E2941018E2648094805003021C64
:0F1DD900E57863E22401F218E23400F2021C3FC5
:011DE80022D8
:10300F007801EFF27801E2D39400401308747DF257
:10301F007802E214F2E270F87801E214F280E5220D
:1022570075B07F7800E5B0F2E2540FF2640F604F7B
:102267007F0A12300F7800E2640F6043E5B0F2E2B4
:102277002485601024FE6018146021240770201242
:102287002CF4801B7FF47E01122FEF122AF5800FAA
:102297007FF47E01122FEF122A6480031216297829
:1022A70000E2640F6009E5B0F2E2540FF280F075C6
:1022B700B0BF7800E5B0F2E2540FF2640F60437FDD
:1022C7000A12300F7800E2640F6037E5B0F2E224BB
:1022D70045600F24FE600F146015240770147F0AF1
:1022E70080067F2D80027F3C7E001228B08003127B
:1022F7001A457800E2640F6009E5B0F2E2540FF284
:1023070080F075B0DF7800E5B0F2E2540FF2640FA9
:1023170060297F0A12300F7800E2640F601DE5B074
:10232700F2E22422600280031213DE7800E2640FD7
:102337006009E5B0F2E2540FF280F075B0EF780073
:10234700E5B0F2E2540FF2640F70030222577F0ADE
:1023570012300F7800E2640F7003022257E5B0F2E3
:10236700E22413600C14600E2407700D122C888071
:1023770008122DA8800312183C7800E2640F70033E
:0C238700022257E5B0F2E2540FF280EDA4
:10298D00BBB6D3AD00B9A6C4DCC7F800B5F7CBD93B
:10299D0000C7F3BEC800B3E4C6F800B7BDCFF20060
:1029AD003A004420203D3D3E3E002320203D3D3E4B
:1029BD003E002A20203D3D3E3E004320203D3D3E31
:1029CD003E00D3CED3BEBFD8D6C6B6CB00CEC2B690
:1029DD00C800CEB3B6C800BEADB6C8002D2D2D2D86
:1029ED002D2D2D2D2D2D00B0B4D2BBBDF8C8EBB9BA
:1029FD00A6C4DCC7F800204200446972656374699F
:102A0D006F6E002A00B0B4003A3400B8B4CEBB00EB
:102A1D003A3500D7AA00343500B6C8003A3600362C
:102A2D003000534F532E2E2E2E00636C6F736500A6
:102A3D006F6F70656E005370656564206368616EBD
:102A4D006765003A32002B00CBD9B6C8003A330087
:072A5D002D00B5B5002000BB
:102DFE008115008117008103008113008116008167
:102E0E00140182190028811B00811800850E34439D
:032E1E0010100190
:0D30E4007580AAC290D291C2927580FF2221
:0B2F2E007F20123056D2907F147E00EE
:102F3900E4FDFCC3ED9FEC9E50217844E4F2087453
:102F49006CF2784408E2FB24FFF218E2FA34FFF24B
:0B2F5900EB4A70EE0DBD00010C80D8AB
:012F6400224A
:0A2FCB00EBF208EAF208E9F2C29105
:102FD500E4FEEF339294EF25E0FFD292A293E4331F
:092FE5004FFFC2920EEEB408E9A0
:012FEE0022C0
:0A304C00E4FD7F211230560D7F22B3
:10305600C291122FD5AC07AF05122FD5D291AF046E
:013066002247
:0C30F100C291122FD5E4FF122FD5D2910E
:0130FD0022B0
:022F9900784579
:102F9B00122FCBAD07E4FC7848E2FFECC39F501B2C
:102FAB00E4FF122FD57845E2FB08E2FA08E2F98C30
:0F2FBB0082758300EF1221430C80DCD291AF05A9
:012FCA0022E4
:0D2E42007BFE7A00790E78487405F27F2A35
:022E4F007845C4
:102E5100122FCBAD07E4FC7848E2FFECC39F501B77
:102E61007845E2FB0808E2F92401F218E2FA34009D
:0F2E7100F21220FDFF122FD50C80DCD291AF059D
:012E8000222F
:102F6500C2907D01122F2EC290122E4212304C7D3E
:102F7500287F251230567D057F311230567D077F1B
:102F8500261230567D037F20123056D2907F147E54
:042F950000022F39CE
:052D4F0078097404F294
:102D5400C290E4FD122F2EC2907BFE7A00790E7889
:102D6400487405F27F30122E4F122E427BFE7A00F9
:102D7400790978487405F27FA0122E4F12304C7DE9
:102D84001A7F241230567D287F251230567D077F06
:102D9400261230567D027F20123056D2907F147E48
:042DA40000022F39C1
:102EBD007845E4F2087480F208E4F2087480F2E4D4
:102ECD00FBFAFDFCFFFE122C10E47845F208F20827
:102EDD0074FFF2087429F208748DF274FFFBFA7D09
:0A2EED00327C007F327E00021F9A43
:102CF4007817E26401705378097409F2122D54E4D0
:102D04007804F2122F657BFE7A0079047848740502
:102D1400F27F61122F997804E2783FF27805E27825
:102D240040F27806E27841F27807E27842F27808D5
:102D3400E27843F2FE783FE2FF08E2FD08E2FB0896
:0A2D4400E27847F208EEF212239342
:012D4E002262
:101A45007845E4F2087480F208E4F2087480F2E460
:101A5500FBFAFDFC7FE07EFF122C107845E4F208CE
:101A6500741FF20874FFF2087429F2087492F27474
:101A7500FFFBFA7D037C007F237E00121F9A7845C9
:101A850074F8F208E4F20874FFF2087429F2087495
:101A950099F274FFFBFA7D1E7C007F037E00121F06
:101AA5009A784574F8F208E4F20874FFF20874298C
:101AB500F208749EF274FFFBFA7D327C007F037E90
:101AC50000121F9A784574F8F208E4F20874FFF2E0
:101AD500087429F20874A3F274FFFBFA7D467C00B2
:101AE5007F037E00121F9A784574F8F208E4F20825
:101AF50074FFF2087429F20874A8F274FFFBFA7DEA
:101B05005A7C007F037E00121F9A7BFF7A2979ADEC
:101B1500E4785EF208F20874EFF208747DF27D1E37
:101B25007C007F247E00121C237BFF7A2979ADE49B
:101B3500785EF208F20874EFF208747DF27D327C6B
:101B4500007F247E00121C237BFF7A2979ADE4787F
:101B55005EF208F20874EFF208747DF27D467C00AF
:101B65007F247E00121C237BFF7A2979ADE4785E01
:101B7500F208F20874EFF208747DF27D5A7C007F5A
:101B8500247E00121C237BFF7A2979AFE4785EF26C
:101B950008F20874FFF20874E0F27D1E7C007F32C3
:101BA5007E00121C237BFF7A2979B7E4785EF20860
:101BB500F20874FFF20874E0F27D327C007F327E19
:101BC50000121C237BFF7A2979BFE4785EF208F2C4
:101BD5000874FFF20874E0F27D467C007F327E00D7
:101BE500121C237BFF7A2979C7E4785EF208F20894
:101BF50074FFF20874E0F27D5A7C007F327E001299
:101C05001C237FD87E0E122FEFE47817F27803F2AB
:0E1C15007813F2781604F27814F27818F2229E
:101629007814E26401600302183B7845F20874807B
:10163900F208E4F2087414F2E4FBFAFDFC7F1FFEE1
:10164900122C107845E4F2087423F208E4F20874C5
:1016590080F27B147A00E4FDFC7FE07EFF122C10FF
:101669007845E4F2087480F208E4F2087480F27BA9
:10167900147A007D237C0074FFFFFE122C1078453C
:10168900E4F208741FF20874FFF2087429F208746E
:10169900CFF274FFFBFA7D037C007F1C7E00121FD2
:1016A9009A784574FFF20874E0F20874FFF208743E
:1016B90029F20874DAF27B007AF87D1E7C007F0338
:1016C9007E00121F9A784574FFF20874E0F20874DC
:1016D900FFF2087429F20874DFF27B007AF87D3290
:1016E9007C007F037E00121F9A784574FFF208740C
:1016F900E0F20874FFF2087429F20874E4F27B003E
:101709007AF87D467C007F037E00121F9A7BFF7A60
:101719002979E9785E74F8F208E4F274FF08F208AE
:10172900F27D167C007F237E00121C237BFF7A2921
:1017390079E9785E74F8F208E4F274FF08F208F2C5
:101749007D287C007F237E00121C237BFF7A297968
:10175900E9785E74F8F208E4F274FF08F208F27DA1
:101769003C7C007F237E00121C237BFF7A2979E9C8
:10177900785E74F8F208E4F274FF08F208F27D501A
:101789007C007F237E00121C237845E4F208741F35
:10179900F20874FFF2087429F20874F4F27BE07A13
:1017A900FF7D647C007F0A7E00121F9A7BFF7A2AE4
:1017B9007903785E74FFF20874E0F208E4F20874C1
:1017C9001FF27D647C007F1A7E00121C237BFF7A46
:1017D9002979ADE4785EF208F274FF08F208F27D27
:1017E9001E7C007F247E00121C237BFF7A2979ADA1
:1017F900E4785EF208F274FF08F208F27D327C00A8
:101809007F247E00121C237BFF7A2979ADE4785E60
:10181900F208F274FF08F208F27D467C007F247E0C
:1018290000121C2378177401F2E418F27818F27880
:0318390014F22284
:1013DE007816E2640160030216287845F2087480DC
:1013EE00F208E4F208741EF2E4FBFAFDFC7FE07EE4
:1013FE0007122C107845E4F2087480F208E4F20823
:10140E007480F27B1E7A00E4FDFC7FE07EFF122CDE
:10141E00107BFF7A2A790674FF785EF208F2087460
:10142E0007F20874E0F27D037C007F197E00121C27
:10143E00237819E2FC08E2FD7BFF7A2A7910E47822
:10144E005EF208F20874FFF20874E0F27F067E0086
:10145E00121C23784574FFF20874E0F20874FFF250
:10146E0008742AF2087412F27B007AF87D287C0048
:10147E007F0F7E00121F9A7BFF7A2A7915E4785E21
:10148E00F208F20874FFF20874E0F27D287C007F07
:10149E00247E00121C23784574FFF20874E0F208D3
:1014AE0074FFF208742AF2087418F27B007AF87D41
:1014BE00287C007F3C7E00121F9A784574FFF2084C
:1014CE0074E0F20874FFF208742AF2087412F27BC8
:1014DE00007AF87D417C007F0F7E00121F9A7BFF01
:1014EE007A2A791DE4785EF208F20874FFF2087425
:1014FE00E0F27D417C007F247E00121C237845742F
:10150E00FFF20874E0F20874FFF208742AF208740D
:10151E0020F27B007AF87D417C007F3C7E00121F1A
:10152E009A7BFF7A2A7923E4785EF208F20874FF38
:10153E00F20874E0F27D417C007F507E00121C2385
:10154E00784574FFF20874E0F20874FFF208742A0A
:10155E00F2087426F27B007AF87D417C007F5F7E74
:10156E0000121F9A784574FFF20874E0F20874FFB7
:10157E00F208742AF2087412F27B007AF87D5A7C13
:10158E00007F0F7E00121F9A7BFF7A2A7929E4785A
:10159E005EF208F20874FFF20874E0F27D5A7C00E5
:1015AE007F247E00121C23784574FFF20874E0F24B
:1015BE000874FFF208742AF2087420F27B007AF89D
:1015CE007D5A7C007F3C7E00121F9A7BFF7A2A791F
:1015DE002CE4785EF208F20874FFF20874E0F27DF3
:1015EE005A7C007F507E00121C23784574FFF2084F
:1015FE0074E0F20874FFF208742AF2087426F27B83
:10160E00007AF87D5A7C007F5F7E00121F9A781355
:0B161E007401F2E47818F27816F22252
:102DA8007816E26401703F78097411F2122D547894
:102DB80045E4F2087480F208E4F2087480F2E4FB57
:102DC800FAFDFCFF7EF8122C107BFF7A2A792F740B
:102DD800FF785EF208F20874F8F208E4F27D32FC3B
:102DE8007F28FE121C23780974FFF2122D54E47810
:062DF80018F27816F22229
:102C88007818E26401706478097412F2122D54788D
:102C980045E4F2087480F208E4F2087480F2E4FB78
:102CA800FAFDFC7FE07E07122C10781BE204F2E2AA
:102CB800D394014002E4F2781BE214600B047027FD
:102CC8007BFF7A2A793780067BFF7A2A793DE47878
:102CD8005EF208F20874FFF20874E0F27D327C00BC
:0C2CE8007F287E00121C23E47816F222E4
:10183C007816E264016003021A447845F208748059
:10184C00F208E4F208741EF2E4FBFAFDFC7FE07E81
:10185C0007122C107845E4F2087480F208E4F208C0
:10186C007480F27B1E7A00E4FDFC7FE07EFF122C7C
:10187C00107BFF7A2A794374FF785EF208F20874C1
:10188C0007F20874E0F27D037C007F0F7E00121CCF
:10189C0023784574FFF20874E0F20874FFF20874C0
:1018AC002AF2087412F27B007AF87D287C007F0FF4
:1018BC007E00121F9A7BFF7A2A7950E4785EF20838
:1018CC00F20874FFF20874E0F27D287C007F247E1D
:1018DC0000121C237BFF7A2A7953E4785EF208F21B
:1018EC000874FFF20874E0F27D287C007F3C7E00D7
:1018FC00121C23784574FFF20874E0F20874FFF2AE
:10190C0008742AF2087455F27B007AF87D287C0062
:10191C007F4B7E00121F9A784574FFF20874E0F238
:10192C000874FFF208742AF2087412F27B007AF839
:10193C007D5A7C007F0F7E00121F9A7BFF7A2A79DA
:10194C005AE4785EF208F20874FFF20874E0F27D53
:10195C005A7C007F247E00121C237BFF7A2A795D3F
:10196C00E4785EF208F20874FFF20874E0F27D5A33
:10197C007C007F3C7E00121C23784574FFF20874B7
:10198C00E0F20874FFF208742AF2087455F27B0036
:10199C007AF87D5A7C007F4B7E00121F9A78457432
:1019AC00FFF20874E0F20874FFF208742AF208746B
:1019BC0055F27B007AF87D417C007F0F7E00121F70
:1019CC009A7BFF7A2979ADE4785EF208F20874FF0D
:1019DC00F20874E0F27D417C007F327E00121C2301
:1019EC007815E275F003A4241CF8E2FB08E2FA086F
:1019FC00E2F9E4785EF208F20874FFF20874E0F29F
:101A0C007D417C007F3C7E00121C23784574FFF2E4
:101A1C000874E0F20874FFF208742AF208745FF29A
:101A2C00E4FBFA7D41FC7F50FE121F9A780374018F
:091A3C00F2E47816F27818F222A7
:102AF5007803E264016003022B837815E204F2E2B5
:102B0500FFC394065049EF24FE601414601D146041
:102B15002614602F24047066122D4F781F803E788E
:102B2500097405F2122D547822803278097406F260
:102B3500122D547825802678097407F2122D5478C1
:102B450028801A78097408F2122D54782B800EE427
:102B55007815F278097410F2122D54781CE2FB08EE
:102B6500E2FA08E2F9E4785EF208F20874FFF20886
:0F2B750074E0F27D417C007F3C7E00121C232225
:102A64007803E264016003022AF47815E214F2E2C6
:102A7400FFC394065076EF14601C14602014602980
:102A840014603214603B2405706678097410F212E5
:102A94002D54781C8035122D4F781F802E780974A0
:102AA40005F2122D547822802278097406F2122D30
:102AB400547825801678097407F2122D54782880EA
:102AC4000A78097408F2122D54782BE2FB08E2FA12
:102AD40008E2F9E4785EF208F20874FFF20874E0A0
:102AE400F27D417C007F3C7E00021C23E47815F2D9
:012AF40022BF
:1028B0007813E26401600302298CEE600302296A46
:1028C000EF24D3603F24F1606F2432600302296A51
:1028D0007819E2FC08E2FD7BFF7A2A7962E4785EEF
:1028E000F208F20874FFF20874E0F27F067E00122C
:1028F0001C2378097401F2122D547819E4F208743B
:1029000028F280667819E2FC08E2FD7BFF7A2A79DA
:1029100062E4785EF208F20874FFF20874E0F27F75
:10292000067E00121C2378097402F2122D547819C5
:10293000E4F2087441F280327819E2FC08E2FD7B8F
:10294000FF7A2A7962E4785EF208F20874FFF208EE
:1029500074E0F27F067E00121C2378097403F212E1
:102960002D547819E4F208745AF27819E2FC08E25E
:10297000FD7BFF7A2A7910E4785EF208F20874FF92
:0D298000F20874E0F27F067E00121C232294
:10302F0030003100320033003400350036003700F5
:0D303F00380039002543002E004E004500EA
:102E21009E1CFF302FFF3031FF3033FF3035FF3034
:102E310037FF3039FF303BFF303DFF303FFF30413E
:1027B7007853ECF208EDF208EAF208EBF2EF14B402
:1027C700090040030228AF9027DC75F003A4C583F6
:1027D70025F0C583730227F702280A02281C02285E
:1027E7002E022840022852022864022876022888EE
:1027F7007855E2FE08E2FF7853E2FC08E2FD781F15
:102807000228987855E2FE08E2FF7853E2FC08E2D6
:10281700FD7822807C7855E2FE08E2FF7853E2FCDF
:1028270008E2FD7825806A7855E2FE08E2FF7853D2
:10283700E2FC08E2FD782880587855E2FE08E2FFBE
:102847007853E2FC08E2FD782B80467855E2FE08D3
:10285700E2FF7853E2FC08E2FD782E80347855E2F7
:10286700FE08E2FF7853E2FC08E2FD783180227827
:1028770055E2FE08E2FF7853E2FC08E2FD78348077
:10288700107855E2FE08E2FF7853E2FC08E2FD7893
:1028970037E2FB08E2FA08E2F9E4785EF208F2743C
:0928A700FF08F208F2121C2322C2
:1024A2007853ECF208EDF208EAF208EBF2EFB40A24
:1024B2000040030225A89024BFF82828730224DDD7
:1024C2000224F002250302251502252702253902DE
:1024D200254B02255D02256F0225817855E2FE0813
:1024E200E2FF7853E2FC08E2FD781C022591785560
:1024F200E2FE08E2FF7853E2FC08E2FD781F0225C3
:10250200917855E2FE08E2FF7853E2FC08E2FD789A
:1025120022807C7855E2FE08E2FF7853E2FC08E272
:10252200FD7825806A7855E2FE08E2FF7853E2FCE6
:1025320008E2FD782880587855E2FE08E2FF7853D9
:10254200E2FC08E2FD782B80467855E2FE08E2FFC5
:102552007853E2FC08E2FD782E80347855E2FE08DA
:10256200E2FF7853E2FC08E2FD783180227855E2FE
:10257200FE08E2FF7853E2FC08E2FD78348010782E
:1025820055E2FE08E2FF7853E2FC08E2FD7837E20A
:10259200FB08E2FA08E2F9E4785EF208F274FF0856
:0725A200F208F2121C2322D3
:1025A9007853ECF208EDF208EAF208EBF2EFB40A1C
:1025B9000040030226AF9025C6F82828730225E4B7
:1025C9000225F702260A02261C02262E02264002AE
:1025D90026520226640226760226887855E2FE08EB
:1025E900E2FF7853E2FC08E2FD781C022698785550
:1025F900E2FE08E2FF7853E2FC08E2FD781F0226BA
:10260900987855E2FE08E2FF7853E2FC08E2FD788B
:1026190022807C7855E2FE08E2FF7853E2FC08E26A
:10262900FD7825806A7855E2FE08E2FF7853E2FCDE
:1026390008E2FD782880587855E2FE08E2FF7853D1
:10264900E2FC08E2FD782B80467855E2FE08E2FFBD
:102659007853E2FC08E2FD782E80347855E2FE08D2
:10266900E2FF7853E2FC08E2FD783180227855E2F6
:10267900FE08E2FF7853E2FC08E2FD783480107826
:1026890055E2FE08E2FF7853E2FC08E2FD7837E202
:10269900FB08E2FA08E2F9E4785EF208F274FF084E
:0726A900F208F2121C2322CB
:0826B000E2FFAB82AA837C006B
:1026B800784CECF208EDF208EAF208EBF2784BEF0E
:0126C800F21F
:1026C90075F064847850F2784B7014E2FF75F00A63
:1026D900847851F2EF75F00A8408E5F0F28025E27A
:1026E900249CFBE434FFFA7C007D0AAF03FE12212F
:1026F900657851EFF27C007D0AAF03AE02122165C5
:102709007852EDF2784CE2FC08E2FDEC6003022716
:10271900B6ED24CE602B24EC604D242860030227FB
:10272900B67851E2FF784EE2FA08E2FB1224A27869
:1027390052E2FF784CE2FC08E2FD784FE2240C807B
:10274900637851E2FF784CE2FC08E2FD08E2FA08FE
:10275900E2FB1224A27852E2FF784CE2FC08E2FD87
:10276900784FE22408803D7850E2FF784CE2FC087B
:10277900E2FD08E2FA08E2FB1227B77851E2FF7896
:102789004CE2FC08E2FD784FE22408FB18E2340031
:10279900FA1224A27852E2FF784CE2FC08E2FD78B2
:0D27A9004FE22410FB18E23400FA1225A9BB
:0127B6002200
:10239300783AEFF208EDF208EBF27847E2783DF293
:1023A3007848E2783EF27849E4F208741EF290002D
:1023B30032783A7D1E1226B07BFF7A307943E47877
:1023C3005EF208F274FF08F208F27D1E7C007F5073
:1023D3007E00121C237849E4F2087432F290003232
:1023E300783D7D321226B07BFF7A307946E4785E01
:1023F300F208F274FF08F208F27D327C007F447E1B
:1024030000121C2390004E783EE2FF7849E2FC085C
:10241300E2FDAB82AA831226B87BFF7A307948E4C7
:10242300785EF208F274FF08F208F27D327C007FD6
:10243300607E00121C237849E4F2087446F290008F
:1024430032783BE2FFAB82AA837D467C001226B83A
:102453007BFF7A307946E4785EF208F274FF08F283
:1024630008F27D467C007F4A7E00121C2390004ABE
:10247300783CE2FF7849E2FC08E2FDAA83AB8212D2
:1024830026B87BFF7A30794AE4785EF208F274FF6B
:0F24930008F208F27D467C007F647E00021C2365
:03000000022B844C
:0C2B8400787FE4F6D8FD758120022BCB91
:1020FD00BB010689828A83E0225002E722BBFE02E1
:09210D00E32289828A83E4932213
:10211600BB010CE58229F582E5833AF583E022507E
:1021260006E92582F8E622BBFE06E92582F8E222C8
:0D213600E58229F582E5833AF583E49322E2
:10214300F8BB010DE58229F582E5833AF583E8F0D2
:10215300225006E92582C8F622BBFE05E92582C87E
:02216300F22266
:10216500BC000BBE0029EF8DF084FFADF022E4CC5E
:10217500F875F008EF2FFFEE33FEEC33FCEE9DEC27
:10218500984005FCEE9DFE0FD5F0E9E4CEFD22ED6D
:10219500F8F5F0EE8420D21CFEADF075F008EF2FB7
:1021A500FFED33FD4007985006D5F0F222C398FDA8
:0521B5000FD5F0EA2245
:1021BA00C2D5EC30E709B2D5E4C39DFDE49CFCEE40
:1021CA0030E715B2D5E4C39FFFE49EFE122165C332
:1021DA00E49DFDE49CFC800312216530D507C3E42D
:0621EA009FFFE49EFE22AF
:1021F000E88FF0A4CC8BF0A42CFCE98EF0A42CFC8E
:102200008AF0EDA42CFCEA8EF0A4CDA8F08BF0A40B
:102210002DCC3825F0FDE98FF0A42CCD35F0FCEB6A
:102220008EF0A4FEA9F0EB8FF0A4CFC5F02ECD392F
:0F223000FEE43CFCEAA42DCE35F0FDE43CFC229C
:0C223F00ECF208EDF208EEF208EFF222DB
:0C224B00A42582F582E5F03583F583229E
:1030C100E4FFFE1220FD600C0FEF70010E09E970A4
:0530D100F20A80EF226D
:102B9000023097E493A3F8E493A34003F68001F294
:102BA00008DFF48029E493A3F85407240CC8C33346
:102BB000C4540F4420C8834004F456800146F6DF15
:102BC000E4800B0102040810204080902DFEE47E7A
:102BD000019360BCA3FF543F30E509541FFEE4930A
:102BE000A360010ECF54C025E060A840B8E493A3D1
:102BF000FAE493A3F8E493A3C8C582C8CAC583CAFC
:102C0000F0A3C8C582C8CAC583CADFE9DEE780BEB3
:012E41000090
:00000001FF
